:020000040800F2
:100000006855002439030008A54000085D3C00083D
:10001000A34000082F060008A753000800000000B6
:10002000000000000000000000000000A14A0008DD
:100030003106000800000000B1400008D94A00085D
:100040005303000853030008530300085303000838
:100050005303000853030008530300085303000828
:100060005303000853030008530300085303000818
:100070005303000853030008530300085303000808
:1000800053030008530300085303000853030008F8
:1000900053030008530300085303000853030008E8
:1000A00053030008530300085303000853030008D8
:1000B00053030008530300085303000853030008C8
:1000C00053030008530300085303000853030008B8
:1000D00053030008530300085303000853030008A8
:1000E00053030008530300080000000053030008F6
:1000F0005303000853030008530300085303000888
:100100005303000853030008530300085303000877
:100110005303000853030008530300085303000867
:100120005303000853030008530300085303000857
:100130005303000853030008530300085303000847
:1001400000000000000000000000000000000000AF
:100150005303000853030008530300085303000827
:100160005303000853030008530300085303000817
:100170005303000853030008530300085303000807
:1001800053030008530300085303000853030008F7
:1001900053030008530300085303000853030008E7
:1001A00053030008530300085303000853030008D7
:1001B00053030008530300085303000853030008C7
:1001C00053030008530300085303000853030008B7
:1001D00053030008530300085303000853030008A7
:1001E0005303000853030008530300085303000897
:1001F0005303000853030008530300085303000887
:100200005303000853030008530300085303000876
:100210005303000853030008A54C000853030008CB
:1002200053030008530300085303000800000000B4
:1002300053030008530300080000000053030008A4
:100240005303000853030008530300085303000836
:100250005303000853030008530300085303000826
:100260005303000853030008530300085303000816
:100270005303000853030008530300080000000064
:100280005303000853030008530300080000000054
:10029000000000005303000800F002F800F03CF8F2
:1002A0000AA090E8000C82448344AAF10107DA45D1
:1002B00001D100F031F8AFF2090EBAE80F0013F0E7
:1002C000010F18BFFB1A43F0010318472C70000000
:1002D0004C700000103A24BF78C878C1FAD8520791
:1002E00024BF30C830C144BF04680C6070470000B0
:1002F0000023002400250026103A28BF78C1FBD82F
:10030000520728BF30C148BF0B6070471FB506F0C9
:10031000B2FF1FBD10B510BD00F04FF91146FFF739
:10032000F5FF05F05CF800F06DF903B4FFF7F2FF9C
:1003300003BC00F075F900000948804709480047F0
:10034000FEE7FEE7FEE7FEE7FEE7FEE7FEE7FEE785
:10035000FEE7FEE704480549054A064B70470000E2
:10036000F54B000899020008684F002468550024E6
:10037000685100246851002453EA020C00F069809F
:100380002DE9F04B4FF00006002B1FBFB3FA83F5A9
:1003900003FA05F424FA05F65E4012BF1643B2FADA
:1003A00082F502FA05F4C5F120051EBF22FA05FC0C
:1003B00044EA0C04203556EA044C4FEA144418BFB2
:1003C000641C4FF000084FF00009904271EB030CE1
:1003D00039D3002919BFB1FA81F701FA07F6B0FA4B
:1003E00080F700FA07F6C7F120071EBF20FA07FCC6
:1003F00046EA0C062037B6FBF4FCA7EB0507103FD6
:1004000007F01F0BCBF120062CFA06F60CFA0BFBBB
:1004100044BFB3460026202FA4BF5E464FF0000B1A
:100420005BEA060C08BF4FF0010B19EB0B0948EB18
:100430000608ABFB027C06FB02CC0BFB03CCC01B0B
:1004400071EB0C01C1E70B46024641464846BDE848
:10045000F08B13B5084318BF4FF0FF300146AFF3E0
:100460000080BDE81C407047032A40F2308010F045
:10047000030C00F0158011F8013BBCF1020F62443F
:1004800098BF11F801CB00F8013B38BF11F8013BD0
:10049000A2F1040298BF00F801CB38BF00F8013B7D
:1004A00011F0030300F05780083AC0F0088051F8BB
:1004B000043B083A51F804CBA0E80810F5E7121DF8
:1004C0005CBF51F8043B40F8043BAFF30080D20717
:1004D00024BF11F8013B11F801CB48BF11F8012BE3
:1004E00024BF00F8013B00F801CB48BF00F8012B06
:1004F000704702F0FF0343EA032242EA024200F09F
:1005000002B84FF0000200B51346944696462039D3
:1005100022BFA0E80C50A0E80C50B1F12001BFF4BC
:10052000F7AF090728BFA0E80C5048BF0CC05DF822
:1005300004EB890028BF40F8042B08BF704748BF70
:1005400020F8022B11F0804F18BF00F8012B7047E4
:1005500070477047704710B5203AC0F00B80B1E883
:100560001850A0E81850B1E81850A0E81850203AE8
:10057000BFF4F5AF5FEA027C24BFB1E81850A0E8F1
:10058000185044BF18C918C0BDE810405FEA827C0B
:1005900024BF51F8043B40F8043B08BF7047D20722
:1005A00028BF31F8023B48BF11F8012B28BF20F8C3
:1005B000023B48BF00F8012B7047754600F02CF84D
:1005C000AE4605006946534620F00700854618B040
:1005D00020B5FFF7BFFEBDE820404FF000064FF00A
:1005E00000074FF000084FF0000BAC46ACE8C00924
:1005F000ACE8C009ACE8C009ACE8C00921F00701CB
:100600008D46704710B50446AFF300802046BDE824
:100610001040FFF78ABE000000487047D800002451
:1006200001491820ABBEFEE7260002007047FEE736
:100630007047000010B500684FF4805247F602047E
:100640008358A3430C682343835000F580504DF238
:1006500001040A798B6843EA02320B7B42EAC33217
:100660004368A343134C1A4342604A7B0B6A43EA34
:100670000242D0F8003123400F4C1A43C0F8002149
:100680000A7D0B6943EA02124B7F42EA0332D0F83B
:10069000043123401A43C0F80421084BD0F8082144
:1006A0001A400B7F896941EAC3711143C0F80811F0
:1006B00010BD00BF00C0FEFFEFEFC0FFFFFFC07F17
:1006C000B0B58A680B681A430B7942EAC3620B7BA8
:1006D00042EAC3524B7B42EA83528B7B42EA43524B
:1006E000CB7B42EA03520B7C002B08BF42F4002272
:1006F0004B7C002B08BF42F40032D1E905341A4389
:100700008B7C42EA03420B7F2243444C42EA033291
:100710004B7F42EAC3228B7F002B08BF42F48062EA
:10072000CB7F42EA43224B6A1A4391F82030002BD8
:1007300008BF42F48072CB6A00681A4391F82830EF
:1007400042EA0312036823401A43026091F83830EA
:10075000CA6B91F8314091F832501B06002D43EAE4
:10076000426291F8303042EA83424B6B42EA4442A3
:100770002B4C42EA030208BF42F480324368234014
:1007800040F20F141A43426091F840204B6C43EA48
:100790000222C368A3434FF60D741A43C26091F856
:1007A00054200B6D43EA420291F84C30002B08BFF5
:1007B00042F080028B6C42EA0342036F23401A43EB
:1007C0000267D0F8902091F8553091F8564022F009
:1007D000030244EA43031A43C0F89020D0F8002DE6
:1007E0008B6D22F072021A43C0F8002D91F8602040
:1007F000CB6D002A08BF43F0400391F8612091F8C7
:10080000621043EA021242EAC101D0F8302D22F010
:100810007B021143C0F8301DB0BD00BF83800400CF
:100820000080F8C0EFF3108072B6FEE770B50B6879
:100830000268D3B101F11C0522F4F84201F10C0663
:1008400038CD1A4347F6FF7322432A43026001F171
:10085000100550F8042F9A434B6842EA030401F153
:10086000180201F11403083112E00E1D47F6FF7360
:100870009A4378CE1A4301F1200322432A4301F11F
:100880001C0542EA060401F1240201F118061431A4
:1008900009681B6812682143346821432C6821438E
:1008A000194311430160002070BD0000F0B50346FC
:1008B00053F8084F1AB3CB68254D244A264F2240DF
:1008C0004C6905EB03331A43224B03EB04531A43E1
:1008D000826050F80C3F0A698D68D1E9004603F048
:1008E0007043013C07EB02426FF0FF071C430346D5
:1008F00007EB05256FF00F0707EB06161BE091E8E5
:1009000065006FF00F0704F07044013807EB021226
:10091000204310436FF0FF0202EB05220E4D40EA28
:10092000020448690B4A02EB0052086905EB0045D6
:10093000074800EB063644EA060089692843013976
:10094000104340EA016018600020F0BDFF0F0FFF68
:1009500000F0FFFF0000F0FF0000FFFFB0B504460D
:1009600000F092FA05460548611C007818BF04445F
:1009700000F08AFA401BA042FAD3B0BDC0000024A8
:10098000F0B5A3B0A0B30446D0F8840028B9232062
:10099000C4F88400204600F0FFF87A48016841F06E
:1009A00002010160006800F002000A900A98207AB3
:1009B000002818BF0120C00502F0FAFE72484FF46B
:1009C000805600682068815941F00101815100F092
:1009D0005BFA054620688059C0070BD000F054FA36
:1009E000401BB0F5FA7FF5D90120E0210425C3E0D2
:1009F0000120C5E0204600F045F901F0C1FD634942
:100A0000002601250227B0FBF1F021680138C1F86A
:100A1000DC0040F20110ADF836000AA913968DF8FB
:100A200047608DF85A508DF82C508DF888508DF80D
:100A30005060ADF8896019968DF860608DF834606B
:100A40001E96ADF84460ADF839500C9615961C967C
:100A50008DF87E608DF868608DF84650ADF858606E
:100A60008DF848508DF83560ADF87C601B968DF898
:100A700074508DF8385020974FF4005010904FF478
:100A8000C3601790202021904FF040500A904FF4FF
:100A900080400F902046FFF713FE4FF400104FF4F4
:100AA000067109910790059003958DF808500196FD
:100AB000ADF810608DF81860ADF8206001A92046EF
:100AC000FFF7B8FD20684FF488516269435867F317
:100AD00094434350910702D0E02101204CE000F5FF
:100AE000885147F6FE758B68AB43002543EA420206
:100AF0008A6004F11803E268602D07D05719565137
:100B000018357E60BE60FE6080C3F5E70323CB62CC
:100B10004A6104F1480500260023A3620A622269A3
:100B2000602E09D09719935118367B60BB60C7E9D6
:100B30000433FB6080C5F3E703230B63CA61002520
:100B4000C4E91A55C4E91655256648328A626168B7
:100B50008A88C0F800230E4A0968C0F80413D0F848
:100B60000C171143C0F80C170A4AD0F8101711439C
:100B7000C0F8101700201021C4F88850C4F8841061
:100B800023B0F0BDF44402580404005840420F0062
:100B90006000020C00C0200C2DE9F04387B0044631
:100BA00002A81421FFF7ADFC2068324988425ED1CB
:100BB0003148324C02AD4FF00B080027304E4FF059
:100BC0000209016841F400410160016801F400413B
:100BD00001910199016841F480310160016801F4DB
:100BE000803101910199016841F40031016001688F
:100BF00001F4003101910199816841F04001816067
:100C0000816801F0400101910199816841F004017E
:100C10008160816801F0040101910199816841F0CE
:100C2000010181608068294600F00100019001986F
:100C3000CDF81880CDE90477CDF80C904FF46050D2
:100C4000029004F5C050B0473220CDE90578CDE9D7
:100C500003970290294604F50060B0478620CDE94D
:100C60000578CDE90397029029462046B04707B0A2
:100C7000BDE8F08300800240D844025800000258CA
:100C8000ED0C0008B0B504460068D0F8000220F46E
:100C9000706501F075FC1049884202D845F4007572
:100CA00015E00E49884202D845F440750FE00C4922
:100CB00088420CD30B49884202D845F4807506E07F
:100CC000094988428CBF45F4A06545F480652068D9
:100CD000C0F80052B0BD00BFBF0E1602FF869303DE
:100CE00000E1F5057FD1F0087FB2E60E2DE9FC4F5B
:100CF0005E4A0A244FF0000A4FF0000990425C4A15
:100D000008BF092402444FEAB223092B38BF4FEA37
:100D1000B224002200940E6836FA02F700F0A38095
:100D2000012303FA02F716EA070B00F09680D1F8C8
:100D300004E003230EF0030CACF10105012D13D8E0
:100D400003FA09F58468CB68AC4303FA09F36FEA48
:100D5000050823438360CEF300134468BC439340EB
:100D60005700234343600BE003FA09F3BCF1030F80
:100D70004F466FEA030803D14F464FF0030C22E0C1
:100D8000C3688C68BCF1020F03EA080304FA07F495
:100D900043EA0403C36016D10AF01C030F2404FACB
:100DA00003FC6FF0030404EA520505442C6A24EAAC
:100DB0000C0C0C6904FA03F343EA0C032B62D1F820
:100DC00004E00EF0030C04681EF4403F0CFA07F335
:100DD00004EA080443EA040303603ED0E34C264ED1
:100DE000236843F00203236023680F2403F0020307
:100DF0000193019D0AF00C0322F003059C40AF59BA
:100E000027EA0404009F07FA03F32343AB514FF092
:100E1000B04633684D6843EA0B04EF0258BF23EA3B
:100E20000B043460134EAF02336843EA0B0458BF1F
:100E300023EA0B043460AF03D6F8803043EA0B0496
:100E400058BF23EA0B04C6F88040ED03F36F43EA72
:100E50000B0458BF23EA0B04F4670AF1040A09F1F2
:100E60000209013257E7BDE8FC8F00BF0024025899
:100E70000000FEA70400005808040058014800685C
:100E8000000C70470010005C77480068704700BF96
:100E900090F84120202A03D190F84020012A01D166
:100EA000022118E0242280F841200268136823F010
:100EB00001031360136823F480531360136819430C
:100EC0001160116841F0010111602022002180F8B9
:100ED000401080F841200846704790F84120202AB1
:100EE00003D190F84020012A01D1022117E02422E9
:100EF00080F841200268136823F00103136013682F
:100F000023F4706343EA01211160116841F001018B
:100F100011602022002180F8401080F8412008460E
:100F20007047000028B3B0B5044690F8410028B9D6
:100F3000002084F84000204600F04CF8242084F87B
:100F40004100D4E90003D4E9021223F07063012ABE
:100F5000056825F0010505600361836823F40043FB
:100F6000836008D141F400418160014651F8043F9B
:100F70000CE00120704741F404418160022A0146DF
:100F800051F8043F02D143F4006201E023F400620F
:100F90000A600F4A04F11005416811434160C168BD
:100FA00021F40041C1602ECD114341EA0321C1600B
:100FB000216A29430160016841F0010101600020BC
:100FC0006064202184F84110206384F84200B0BDA1
:100FD0000080000270B5B8B0044633A81421FFF7B2
:100FE00090FA02A8C021FFF78CFA2068184CA042A2
:100FF0002BD11020029000250395289502A800F01F
:10100000D5FC08B1FFF70EFCF14E33A9306840F073
:1010100080003060306800F080000190042037903C
:10102000CDE93555122034904FF4C05033900198DB
:1010300004F50030FFF75AFE706940F080007061DF
:10104000706900F080000190019838B070BD00BF59
:10105000001C00580348044900780A6810440860DE
:10106000704700BFC00000248847002480B50320DB
:1010700000F0A8F801F0C2FA0E49E04B0A68C2F38A
:101080000322096801F00F019A5C595C02F01F020B
:10109000D040094A01F01F011060C84007490860AC
:1010A0000F2000F00DF808B1012080BD00F04CF8D1
:1010B000002080BD18440258C8000024CC00002441
:1010C000B0B58AB00F282DD804467620002200251E
:1010D000214600F05BF8762000F04AF815480460DD
:1010E0001548016841F480210160006801A900F4FD
:1010F00080200290029802A801F01AFA01F06CFA1E
:101100004000104C0D490E4B40F2E732B0FBF4F0BA
:101110000138C1E90030C1E902520D61084602F010
:1011200054FB08B1012002E0044802F07FFB0AB042
:10113000B0BD00BFC4000024F04402580C040024D9
:101140000048014040420F0081B008480022016879
:1011500041F00201016000680F2100F002000090E0
:1011600000986FF0010001B000F010B8F44402588C
:10117000002808D400F01F010122400902FA01F101
:10118000014A42F82010704700E100E070B5134BAF
:101190004FF0FF351B68C3F30223DC1E83F0070307
:1011A00038BF0024042B28BF042305FA04F605FAEF
:1011B00003F3B2439943A1401143BDE8704004F0EA
:1011C000F3B800BF05494FF6FF030A681A4060F301
:1011D0000A22034810430860704700BF0CED00E08E
:1011E0000000FA05B0B5104D2A682968520705D4E9
:1011F00001F00701081A18BF0120B0BD21F0070156
:1012000008432860FFF740FE044655F8080C8004A8
:1012100007D4FFF739FE001BB0F57A7FF5D901201E
:10122000B0BD0020B0BD00BF0C480258F8B5044660
:10123000FFF72AFE2CB1054694F8410018B1A06CC6
:1012400007E00120F8BD204600F040F841F2883068
:10125000A0642168A2686FF0FF03002603EB02225E
:101260000B6823F4F8531A430A60009020462021AB
:101270002B46002202F090FF00B1F8BDD4E9000136
:10128000D4E903230F4F05683D402A4342EA016138
:10129000E2691143226A114301600B4A416811401F
:1012A00062691143A26941EA034111434160016847
:1012B00041F0010101600120666484F841000020D2
:1012C000F8BD00BF2FFFFF00FEF8E0FF2DE9F04F53
:1012D00087B0044602A81421FFF713F920683B49A0
:1012E00088426FD13A4802AD4FF0090800273A4CC6
:1012F0004FF0020A50F80C1C41F4804140F80C1CDD
:1013000050F80C1C01F4804101910199016841F0F1
:1013100010010160016801F010010191019901685B
:1013200041F040010160016801F040010191019923
:10133000016841F020010160016801F02001019184
:101340000199016841F0020101600068214900F043
:101350000200019089460198CDF81880CDE9047704
:10136000CDF80CA00420029001F540602946A0476A
:1013700009F5A05029464FF00A0BCDE9057BCDE9D0
:1013800003A740260296A047CDF81880CDE9047740
:10139000CDE9026A09F5805629463046A0474FF448
:1013A0004070CDE9057BCDE903A702902946304680
:1013B000A0470420CDE90578CDE903A7029029468E
:1013C0004846A04707B0BDE8F08F00BF005000526C
:1013D000E044025800040258ED0C000880B501F00A
:1013E000CFF80549054A0968C1F30211515C01F0C3
:1013F0001F01C84080BD00BF204402589072000801
:10140000B0B53C498B6A8A6ACC6A4D6B04F0010422
:10141000C5F3CC056C4300EE104AB8EE400AC2F3A7
:10142000051262B103F00303022B0CD0012B0DD087
:1014300013B90B689B060CD49FED311A13E0002101
:10144000C0E9001153E09FED2D1A0CE09FED2A1A20
:1014500009E00B682B4CC3F3C10324FA03F301EE3C
:10146000103AB8EE411A0B6B9FED273A6FF35F23EA
:1014700002EE103AB8EE422A00EE032A03EE102ADA
:10148000B7EE000AB8EE433A0A6BC2F3462232EED8
:10149000002A81EE031A21EE021A02EE102AB8EE9B
:1014A000422A32EE002A81EE022ABCEEC22A80EDE8
:1014B000002A0A6BC2F3064202EE102AB8EE422A54
:1014C00032EE002A81EE022ABCEEC22A80ED012A09
:1014D000096BC1F3066102EE101AB8EE422A32EE31
:1014E000000A81EE000ABCEEC00A10EE101A8160FC
:1014F000B0BD00BF004402580024744A001B374CA2
:101500000024744C0090D00300000039B0B53B4972
:101510008B6A8A6ACC6AC4F30014CD6BC5F3CC0520
:101520006C4300EE104AB8EE400AC2F30532AAB18D
:1015300003F00303022B15D0BBB90B689B0651BF08
:101540009FED311A0B68C3F3C103304C42BF24FA3C
:1015500003F301EE103AB8EE411A08E00021C0E9A9
:10156000001148E09FED271A01E09FED251A8B6BD3
:101570009FED273A6FF35F2302EE103AB8EE422A4E
:1015800000EE032A03EE102AB7EE000AB8EE433A43
:101590008A6BC2F3462232EE002A81EE031A21EE54
:1015A000021A02EE102AB8EE422A32EE002A81EE2A
:1015B000022ABCEEC22A80ED002A8A6BC2F30642E0
:1015C00002EE102AB8EE422A32EE002A81EE022AFA
:1015D000BCEEC22A80ED012A896BC1F3066102EEDE
:1015E000101AB8EE422A32EE000A81EE000ABCEE72
:1015F000C00A10EE101A8160B0BD00BF004402584E
:101600000024744A001B374C0024744C0090D00313
:1016100000000039B0B53B498B6A8A6ACC6AC4F3D2
:1016200000244D6CC5F3CC056C4300EE104AB8EEB7
:10163000400AC2F30552AAB103F00303022B15D0EE
:10164000BBB90B689B0651BF9FED311A0B68C3F302
:10165000C103304C42BF24FA03F301EE103AB8EE56
:10166000411A08E00021C0E9001148E09FED271A67
:1016700001E09FED251A0B6C9FED273A6FF35F2376
:1016800002EE103AB8EE422A00EE032A03EE102AC8
:10169000B7EE000AB8EE433A0A6CC2F3462232EEC5
:1016A000002A81EE031A21EE021A02EE102AB8EE89
:1016B000422A32EE002A81EE022ABCEEC22A80EDD6
:1016C000002A0A6CC2F3064202EE102AB8EE422A41
:1016D00032EE002A81EE022ABCEEC22A80ED012AF7
:1016E000096CC1F3066102EE101AB8EE422A32EE1E
:1016F000000A81EE000ABCEEC00A10EE101A8160EA
:10170000B0BD00BF004402580024744A001B374C8F
:101710000024744C0090D00300000039F8B580F428
:1017200000220A4300F07F8080F400720A4332D026
:1017300080F480620A4300F0878080F400620A43EC
:1017400038D080F480520A4300F08B8080F400523D
:101750000A4300F0948080F480420A4337D080F43A
:1017600000420A4342D080F480320A434ED080F4D3
:101770008070084340F0DF808749086D00F0070261
:10178000042A00F2D8808848DFE812F0770087004A
:101790008E00D60096008049086DC0F38212042A9C
:1017A00000F2C9808048DFE812F0680078007F000E
:1017B000C70087007849886DC0F30262042A00F2EE
:1017C000BA807948DFE802F0596970B87800724849
:1017D000816DC1F30271052900F2AD80DFE801F0EF
:1017E00003869198A28DFFF7F9FDA5E06A48016D87
:1017F00001F04051B1F1005F00F07880B1F1805FFD
:1018000000F09680002940F0968076E06248C16C36
:101810000068C90340F18D80000140F18C8001A86F
:10182000FFF774FEA1E05C48816D01F44031B1F531
:10183000003F00F08880B1F5803F00F090800029E3
:1018400040F07980006829E05349886DC0F3425226
:10185000042A00F270805448DFE802F00F1F266E61
:101860002E004D49086DC0F30232042A63D84E4859
:10187000DFE802F003131A622200086859E04648C4
:10188000016DC1F30241052955D8DFE801F0032FAE
:101890003A414B3600F092FE4EE0086800014AD50E
:1018A00001A8FFF733FE05E00868800043D501A8D2
:1018B000FFF7B0FE01983FE0C86C0B6810F0405293
:1018C000086802D113F0040326D1B2F1805F02D17F
:1018D00010F4807051D1086810F400301CBF46F637
:1018E0000040C0F2DC20B2F1005F52E0006800016D
:1018F00021D501A8FFF70AFE23E0006827498003ED
:1019000013E00068800016D501A8FFF783FE18E0F9
:10191000016849070FD50068C0F3C100214921FAC9
:1019200000F009E000681E49C00501EAE07003E02C
:101930000068800102D4002004B080BD01A8FFF738
:101940005FFD0298F8E7C16C0368026811F040512E
:101950000DD113F004030AD0C2F3C100DEE7006822
:101960008000E8D501A8FFF755FE0398E4E7B1F140
:10197000805F04D112F4807201D00948DCE700686E
:1019800010F400301CBF46F60040C0F2DC20B1F17C
:10199000005F18BF0020CFE700440258006CDC0253
:1019A00000093D000090D0030080BB002DE9F04706
:1019B0000446C078AD4F000722D5A06E4FEA3051E3
:1019C000032908D8DFE801F002090F17F96941F48B
:1019D0000031F9610FE0012613E004F10800022153
:1019E00002F004FC04E004F12800022102F07AFC79
:1019F000064630B9A06E396C21F4401108433864B2
:101A000000266078BA46C00701D1354629E0A06DAE
:101A100004280BD83546DFE800F0030C1218180034
:101A2000F869354640F40030F8610EE001250127E1
:101A300018E004F10800002102F0D8FB04E004F1F2
:101A40002800002102F04EFC05462F4655B9A06D36
:101A5000DAF840100025524621F007010843CAF881
:101A600040003746607880072CD5E06D4FEAB01013
:101A700004280CD8DFE800F0030E141A1A00DAF874
:101A80001C00514640F40030CAF81C000EE001254D
:101A9000012618E004F10800002102F0A7FB04E091
:101AA00004F12800002102F01DFC05462E4655B920
:101AB000E06DDAF840100025524621F4E071084349
:101AC000CAF840003E466078400702D4B046574608
:101AD0002BE0D4F8A80057464FEA7050042809D8E4
:101AE000DFE800F0030C12181800F86940F4003029
:101AF000F8610FE001254FF0010816E004F108003D
:101B0000002102F073FB04E004F12800002102F040
:101B1000E9FB0546A84645B9D4F8A800B96C0025EC
:101B2000B04621F460010843B864607800072BD503
:101B3000D4F8AC004FEA3060042809D8DFE800F0A0
:101B4000030B11171700F86940F40030F8610EE03C
:101B50000125012719E004F10800002102F046FBED
:101B600004E004F12800002102F0BCFB05462F46EA
:101B70005DB9D4F8AC00DAF848100025524621F0DF
:101B8000E0610843CAF848004746E078800725D559
:101B9000E06C4FEA301003280BD8DFE800F01302A6
:101BA0000D13DAF81C00514640F40030CAF81C004E
:101BB00008E00125012612E004F10800022102F0EC
:101BC00015FB05462E4655B9E06CDAF83C100025A9
:101BD000524621F030010843CAF83C003E46607886
:101BE000C0062CD5206E4FEA303004280CD8DFE830
:101BF00000F0030E141A1A00DAF81C00514640F4E3
:101C00000030CAF81C000EE00125012718E004F19D
:101C10000800002102F0EAFA04E004F128000021A3
:101C200002F060FB05462F4655B9206EDAF84010E9
:101C30000025524621F4E0410843CAF840003746E7
:101C40006078800626D5606E4FEA304005280AD8B5
:101C5000DFE800F014030E14141404F1080001214D
:101C600002F0C4FA09E00125012614E010440258EC
:101C700004F12800012102F035FB05462E4655B936
:101C8000606EDAF840100025524621F4E021084346
:101C9000CAF840003E466078400626D5D4F8B00029
:101CA0004FEA307005280AD8DFE800F012030C1262
:101CB000121204F10800012102F098FA07E0012550
:101CC000012713E004F12800012102F00BFB054677
:101CD0002F465DB9D4F8B000DAF848100025524616
:101CE00021F0E0410843CAF8480037466078000612
:101CF00021D5206F98B1B0F1005F0AD0B0F1805FBC
:101D00002DD1DAF81C00514640F40030CAF81C000E
:101D100005E004F10800012102F068FA05462E46AC
:101D200055B9206FDAF840100025524621F0405195
:101D30000843CAF840003E46E078C00702D1B046EA
:101D4000574623E0A06C574603280BD8DFE800F085
:101D500014020E14F86940F40030F8610CE001251B
:101D60000126E9E701254FF001080FE004F1080022
:101D7000022102F03BFA0546A8463DB9A06CF96B7A
:101D80000025B04621F003010843F863A07840061F
:101D900001D4474616E0D7F8F00340F48070C7F846
:101DA000F003FFF771F80646D7F8F003C00507D433
:101DB000FFF76AF8801B6428F6D90325032701E0A2
:101DC0002F4695B12078C0074FD0E06F4FEAF00062
:101DD000052835D8DFE800F03D03373D3D3D04F1EF
:101DE0000800012102F002FA32E0DAF86010D4F8BB
:101DF000B4005546414011F4407F0BD0296E2A6E45
:101E000042F480322A6621F440712A6E22F4803234
:101E10002A662966B0F5807F40F06982FFF734F8C2
:101E2000064641F288390327DAF86000800700F19E
:101E30005B82FFF729F8801B03254845F4D9C1E7E9
:101E40000125012612E004F12800012102F04AFADE
:101E500005462E4655B9E06FDAF844100025524683
:101E600021F038010843CAF844003E462078800734
:101E700022D5A06F05280AD8DFE800F012030C1263
:101E8000121204F10800012102F0B0F907E0012567
:101E9000012712E004F12800012102F023FA05468F
:101EA0002F4655B9A06FDAF844100025524621F0AC
:101EB00007010843CAF8440037462078400724D574
:101EC000D4F8940005280AD8DFE800F012030C12B9
:101ED000121204F10800012102F088F907E001253F
:101EE000012613E004F12800012102F0FBF9054668
:101EF0002E465DB9D4F89400DAF848100025524611
:101F000021F007010843CAF848003E4620788006C1
:101F100026D5D4F890004FEA307005280AD8DFE8BB
:101F200000F012030C12121204F10800002102F05A
:101F30005DF907E00125012713E004F128000221E3
:101F400002F0D0F905462F465DB9D4F89000DAF8D2
:101F500044100025524621F0E0410843CAF84400ED
:101F600037462078400626D5D4F89C004FEAB020AA
:101F700005280AD8DFE800F012030C12121204F14F
:101F80000800002102F032F907E00125012613E0E4
:101F900004F12800022102F0A5F905462E465DB99C
:101FA000D4F89C00DAF848100025524621F4E0519C
:101FB0000843CAF848003E462078000626D5D4F8E3
:101FC000A0004FEA703005280AD8DFE800F01203BD
:101FD0000C12121204F10800002102F007F907E0C8
:101FE0000125012713E004F12800022102F07AF90B
:101FF00005462F465DB9D4F8A000DAF84810002550
:10200000524621F460410843CAF848003746206828
:10201000010717D5D4F88410B1F5805F0AD104F117
:102020002800022102F05EF9002818BF012720686D
:10203000D4F88410DAF84420534622F44052114375
:10204000CAF84410C10617D5D4F89810B1F5807FAE
:102050000AD104F12800022102F044F9002818BF37
:1020600001272068D4F89810DAF84820534622F463
:1020700040721143CAF84810000321D5D4F8A400D7
:10208000B0F5003F0FD0B0F5803F06D080BB04F123
:102090000800002102F0AAF804E004F1280002215F
:1020A00002F020F905462E465DB9D4F8A400DAF80E
:1020B00048100025524621F440310843CAF8480030
:1020C0003E46A078400729D5D4F88800B0F5401FD7
:1020D00017D0B0F5001F0ED0B0F5801F40F0FF8084
:1020E000DAF81C00514640F40030CAF81C0008E041
:1020F00001250126E5E704F12800012102F0F2F8AC
:1021000005462F465DB9D4F88800DAF8441000255A
:10211000524621F440110843CAF844003746A078DB
:10212000C00701D13E4621E0206DB0F5803F08D0C8
:10213000D0B9DAF81C00514640F40030CAF81C004F
:1021400005E004F10800022102F050F805462E4691
:1021500065B9206DDAF83C100025524621F4803133
:102160000843CAF83C00DDE7012501262168880004
:1021700001D4606809E004F12800022102F0B2F8FD
:10218000002818BF0126D4E900108A031BD5D4F813
:1021900080206FF0010303EB3223022B0BD34FEAB5
:1021A000322343B1012B40F09D80DAF81C3043F418
:1021B0000033CAF81C303DB9DAF8443023F44073D8
:1021C0001A43CAF844203546CA0207D5626FDAF8C6
:1021D000403023F000431A43CAF84020CA0008D513
:1021E000D4F8B820DAF8003023F480431A43CAF850
:1021F00000208A0207D5E26EDAF8403023F08073BF
:102200001A43CAF840204A000CD5DAF8002022F41C
:102210000042CAF80020D4F8BC20DAF800301A4393
:10222000CAF80020B1F1FF3F07DC626DDAF83C30FC
:1022300023F040531A43CAF83C20090208D5D4F8C9
:102240008C10DAF8442022F440021143CAF84410FA
:10225000C10708D004F10800002101F0C7FF0028E1
:1022600018BF05466068810708D504F10800012100
:1022700001F0BCFF002818BF05466068410708D57B
:1022800004F10800022101F0B1FF002818BF054643
:102290006068010708D504F12800002102F022F847
:1022A000002818BF05466068C10608D504F128005B
:1022B000012102F017F8002818BF05466068800663
:1022C00007D504F12800022102F00CF8002818BFFD
:1022D0000125002D18BF01252846BDE8F0870125FE
:1022E00001271CE701256FE75546D4F8B4002A689A
:1022F000094900F4407322F47C5201EA1011B3F54D
:10230000407F6FF31F3008BF0A432A60296E0843DD
:10231000286600253DE500BFCFFFFF002DE9F8430B
:10232000002800F00081954D04468846286800F09A
:102330000F0088420BD2286820F00F0040EA080006
:102340002860286800F00F00404540F0EC802068CD
:10235000DF4F41070AD52169BA6902F07002914244
:1023600004D9BA6922F070021143B96101070AD594
:102370006169FA6902F07002914204D9FA6922F0A7
:1023800070021143F961C1060AD5A169FA6902F424
:10239000E062914204D9FA6922F4E0621143F961E2
:1023A00081060AD5E1693A6A02F07002914204D9C5
:1023B0003A6A22F070021143396210F002010AD029
:1023C000E268BB6903F00F039A4204D9BB6923F0AA
:1023D0000F031A43BA61C2073AD0D4E90101BA69BE
:1023E00022F47062032841EA0201B96105D0022893
:1023F00007D1396889030DD495E03968890109D47A
:1024000091E03968012802D1C90503D48BE049075E
:1024100040F189803969A94621F0070108433861F4
:10242000FEF732FD064641F288356068396901F0F1
:102430003801B1EBC00F07D0FEF726FD801BA84284
:10244000F3D90320BDE8F88320684D4600F002016F
:1024500051B1E168BA6902F00F02914204D2BA693F
:1024600022F00F021143B961296801F00F014145C3
:102470000AD9296821F00F0141EA08012960296879
:1024800001F00F0141454ED141070AD52169BA69D2
:1024900002F07002914204D2BA6922F07002114334
:1024A000B96101070AD56169FA6902F070029142C7
:1024B00004D2FA6922F070021143F961C1060AD50B
:1024C000A169FA6902F4E062914204D2FA6922F445
:1024D000E0621143F96180060AD5E069396A01F0CA
:1024E0007001884204D2396A21F0700108433862D1
:1024F00000F084F8B969404A2E4BC1F30321515CC6
:1025000001F01F01C840B969186001F00F01515C6A
:1025100001F01F01C8402849086004480068BDE870
:10252000F843FEF7CDBD0120BDE8F883C4000024C8
:102530003F2202601E4A52F8083C03F00703436042
:10254000136803F470638360136803F00F03C360C0
:10255000136803F070030361536803F07003436171
:10256000536803F4E0638361926802F07002C26111
:102570000248006800F00F00086070470020005219
:1025800080B500F03BF80A491B4B0A68C2F30322EE
:10259000096801F00F019A5C595C02F01F02D040FB
:1025A000044A01F01F011060C8400349086080BD63
:1025B00018440258C8000024CC00002480B5FFF75E
:1025C000DFFF0C490C4A0968C1F30211515C01F0AC
:1025D0001F01C84080BD00BF80B5FFF7D1FF05498E
:1025E000054A0968C1F30221515C01F01F01C8408E
:1025F00080BD00BF1C4402589072000810B53449D9
:102600000869C0F3C20003280BD002282FD080BB7A
:102610000868800634485AD50968C1F3C101C8402A
:1026200010BD8A6A886ACB6A4C6B03F00103C4F35D
:10263000CC04634300EE103AB8EE400AC0F3051034
:10264000C8B102F00302022A17D0CAB90A6892067A
:1026500051BF9FED241A0A68C2F3C102224B42BF48
:1026600023FA02F201EE102AB8EE411A0AE01A48E3
:1026700010BD184810BD002010BD9FED191A01E0D3
:102680009FED161A0A6B9FED193A6FF35F2202EE67
:10269000102AB8EE422A00EE032AB7EE000A32EE04
:1026A000000A02EE100AB8EE422A086BC0F3462078
:1026B00081EE021A013021EE000A01EE100AB8EE96
:1026C000411A80EE010ABCEEC00A10EE100A10BDDD
:1026D0000044025800093D00006CDC020024744AEA
:1026E000001B374C0024744C0090D00300000039CC
:1026F000F8B5002800F03F8104460078D44EC007AA
:1027000021D12078800740F19A80306910F038019B
:10271000B06A3DD0182908BF5FEA807038D03068B1
:10272000E16800295ED020F0190008433060FEF710
:10273000ABFB05463068400743D4FEF7A5FB401BC2
:102740000228F7D9C8E1306900F03801B06A1029D1
:1027500005D018290AD100F00300022806D13068FC
:102760008003CED560680028CBD104E160680028E2
:1027700048D0B0F5803F07D03168B0F5A02F40F0C9
:10278000988141F480203060306840F4803096E1D8
:10279000E0683168490702D5002800F0EC80316814
:1027A00021F0190108433060FEF76EFB05463068E2
:1027B000400706D4FEF768FB411B03200229F6D927
:1027C000F8BDFEF75BFB41F20301884230D8206977
:1027D000716821F47C31402814BF41EA003041F493
:1027E00000302BE020F001003060FEF74DFB054685
:1027F0003068400723D5FEF747FB411B0320022921
:10280000F6D9DDE7306820F480303060306820F49D
:1028100080203060FEF738FB0546306880037FF586
:1028200070AFFEF731FB411B03206429F5D9C7E7E0
:102830002069716821F0FE4141EA006070602078F3
:10284000C00640D5306900F03801B06A082905D0CB
:1028500018291CD100F00300012818D13068C005E8
:1028600003D5E069802840F08680FEF707FB41F23F
:102870000301884220D8206A716821F0F84120289D
:1028800014BF41EA806041F0804070601BE0306816
:10289000E169002900F0DE8040F080003060FEF742
:1028A000F3FA05463068C005DFD4FEF7EDFA411BA8
:1028B00003200229F6D983E7206AF16821F07C51D0
:1028C00041EA0060F0602078000756D42078800646
:1028D00065D42078400776D4676A002F49D03069E4
:1028E00000F03800182840F0C680B16A306B012F24
:1028F00041D0A26A01F0030393423CD1E26AC1F3E2
:102900000511914237D10146226B6FF35F21013AE5
:10291000914230D1C0F34621626B013A91422AD1F3
:10292000C0F30641A26B013A914224D1C0F3066084
:10293000E16B013988421ED1A06C716BC1F3CC01EF
:10294000884216D0F06A20F00100F062FEF79CFA8F
:102950000546FEF799FAA842FBD0706B4FF6F87166
:102960008843A16C40EAC1007063F06A40F0010046
:10297000F0620020F8BD0120F8BD706F6169A9B355
:1029800040F001007067FEF77FFA0546706F800720
:102990009CD4FEF779FA401B0228F7D99CE03068F6
:1029A000A169002943D040F480503060FEF76CFAF2
:1029B0000546306880043FF58CAFFEF765FA401B92
:1029C0000228F6D988E0D6F8000440F48070C6F8F2
:1029D0000004FEF759FA0546D6F80004C00516D4DF
:1029E000FEF752FA401B6428F6D975E020F001008A
:1029F0007067FEF749FA0546706F80077FF566AF8E
:102A0000FEF742FA411B03200229F5D9D8E6A06857
:102A1000002863D0012806D0316F052840F0D5800A
:102A200041F004003067306F40F00100D3E020F443
:102A300080503060FEF728FA0546306880047FF544
:102A400048AFFEF721FA411B03200229F5D9B7E66A
:102A50000044025820F080003060FEF715FA054669
:102A60003068C0057FF52FAFFEF70EFA411B03203B
:102A70000229F5D9A4E6306820F080703060FEF7B6
:102A800003FA0546022F09D1306880013ED5FEF7D2
:102A9000FBF9411B03200229F6D991E63068800139
:102AA0007FF567AFFEF7F0F9411B03200229F5D946
:102AB00086E621F480303060306820F48020306079
:102AC000FEF7E2F90546306880033FF51AAEFEF7DF
:102AD000DBF9401B6428F6D90320F8BD306F20F0E5
:102AE00001003067306F20F004003067FEF7CCF94A
:102AF000054641F28837306F80077FF5EDAEFEF76F
:102B0000C3F9411B0320B942F5D959E604F1280560
:102B1000B06A40F2F33188432ECD0843591E40EA93
:102B20000210B0626FF35F214FF4FE024FF47E405B
:102B300000EB452080B20844A16B02EB01414FF04D
:102B4000FE4201F4FE010844E16B02EB016101F079
:102B5000FE41084430634FF6F871F06A20F001003E
:102B6000F062706B8843A16C40EAC1007063206C16
:102B7000F16A21F00C010843F062F06A616C20F008
:102B800002000843F062F06A40F48030F062F06ABC
:102B900040F40030F062F06A40F48020F062F06AA5
:102BA00040F00100F062306840F080703060FEF765
:102BB0006BF90446306880013FF5DBAEFEF764F93F
:102BC000011B03200229F5D9FAE521F00100306745
:102BD000306F20F004003067FEF756F9054641F2E9
:102BE0008837306F80073FF577AEFEF74DF9411B10
:102BF0000320B942F5D9E3E508B3B0B5044690F82F
:102C00002C000D4628B9002084F82D00204600F045
:102C10001BF8022084F82C00211D2068FDF706FE19
:102C2000D4E900022946FDF741FE0648016841F05B
:102C300000410160012084F82C000020B0BD01207B
:102C4000704700BF004000522DE9F04786B001A850
:102C50001421FDF756FC2A48017800294DD10121A5
:102C6000017028484FF00C084FF003094FF0000A9C
:102C70000227254D01AC254E016841F480510160C9
:102C80000068214600F480500090CDF81480CDF803
:102C90001090CDF80CA0029748F217100190009800
:102CA00005F54060B0474CF20370CDE90498CDE9DA
:102CB000027A019021462846B0474FF63F00CDE901
:102CC0000498CDE9027A0190214605F50060B047ED
:102CD0002C20CDE90498CDE9027A0190214605F532
:102CE0008050B0474FF68070CDE90498CDE9027A64
:102CF0000190214605F58060B04706B0BDE8F08739
:102D000078010024D4440258000C0258ED0C00084D
:102D10002DE9FF41044603200D4684F83000A06BE6
:102D200003280BD14FF08050616BB84E08436063AD
:102D3000606B40B320688663012593E0002D4BD083
:102D4000B5F5004FEED0B5F5804F5BD10020CDE951
:102D500002000021206801F003FE800155D402A981
:102D6000204601F02DFE0028DED19DF80E00400720
:102D700045D5616C2068090401F032FB0028D3D1ED
:102D80002068022158E04FF480300021FEF7C6FC95
:102D9000E8B13E49D4E904C7B0FBF1F3D4E901122C
:102DA0009F4258D2B646A66DB6F5007F52D0B6F512
:102DB000807F2DD1354B002F41D07E00B0FBF6F641
:102DC0009E42764647D9334BB0FBF3F743E0606B46
:102DD00040F000606063AFE70020CDE90200002111
:102DE000206801F0BDFD80010FD402A9204601F04A
:102DF000E7FD002898D19DF80E00C00712D14FF0D2
:102E0000806091E74FF000608EE74FF400608BE741
:102E10001F4EDFB1B0467E00B0FBF6F0404588BFE4
:102E20001F4617E0616C2068090401F0D9FA0028F8
:102E30007FF47AAF2068002101F020FB74E798420C
:102E400092BF0027134BB0FBF3F703E0B04298BFEB
:102E500000231F46764620682B46CDE900C701F0C7
:102E600083FD002520684FF4007101F0ECFA28B1D1
:102E7000216801258E63616B08436063012084F83B
:102E80003000284604B0BDE8F08100BF80F0FA02AF
:102E900040787D0100E1F505B0B5D0E91742836BBC
:102EA000A50F0D70012BC4F383654D70C4F301654C
:102EB0008D704FEA1445CD704FEA14250D714C7199
:102EC0004FEA1254CC80C2F303440C72C2F3C034F4
:102ED0004C72C2F380348C72C2F34034CC72C2F3B1
:102EE00000340C734FF000044C7330D0002B40F0D2
:102EF000818040F6FC73012503EA8202436E42EAB8
:102F000093720A61426EC2F3C2630B75C2F302632D
:102F10004B75C2F342538B75C2F38243CB75C2F338
:102F2000C2330B764FF4007343650B690C7E01339B
:102F300004F007040234A34083640C7A04F00F0405
:102F400005FA04F4C464640A6343036512E002F002
:102F50003F02B0F8663043EA02420A614FF48063F0
:102F60004FF400724265C2640A6903EB8222026573
:102F70008264426EC2F380334B76C2F3C6138B7603
:102F800002F07F02CA76806EC20F0A77C0F34172E8
:102F90004A77C0F382628A77C0F38352CA77C0F35C
:102FA000405281F82020002281F82120C0F3004304
:102FB00081F82230C0F3C03381F82330C0F380336E
:102FC00081F82430C0F3403381F82530C0F300335A
:102FD00081F82630C0F3812381F82730C0F3012324
:102FE000C0B281F82830400881F82900012081F81A
:102FF0002A0009E00168714A8A630122416B41F0AD
:103000008051416380F830201046B0BDFF0FE01FB3
:1030100010B504460068616C090401F0F1FA20B1B2
:10302000616B08436063002010BD2068002101F03F
:1030300097FCC0F3432010BD2DE9F04397B0044640
:1030400090F83000032801D1012543E00D46FDF73B
:103050001BFF80462068002101F082FC8001574E52
:1030600023D42068402101F0EEF9D0B9616C2068CA
:10307000090401F0B5F9A0B90120169011A90020AA
:1030800015900220149060201390402012904FF071
:10309000FF301190206801F004FB206801F0E6FA8F
:1030A000E0B10146606B606301E04FF400612068AD
:1030B00001258663626B1143616384F830504FF4DD
:1030C000007101F0C0F928B1216801258E636063A9
:1030D00084F83050284617B0BDE8F08301AFB14600
:1030E0002068426B416B12F4957F15D108040AD514
:1030F0000026202E05D0206801F04CFCB851043683
:10310000F7E737444E46FDF7BFFEA0EB08004FF04F
:1031100000410130E4D1CAE7090714D4416B8907A3
:1031200013D4416B890612D4416BC90411D501F047
:1031300031FC3860FDF7A8FEA0EB080001303AD062
:1031400020680437F0E70821B1E70221AFE720212A
:10315000ADE71B498163DDE9011CDDE90336CFB230
:10316000BA092A70C7F340126A706FF0FF0202EAD0
:10317000112747EA116169809CFA8CF169602B7212
:10318000190A6972C3F30351A97202EA1341F2B238
:103190001144A981C6F38521A973C6F30121E973FE
:1031A0001109297406F00F0169744E469DF8171035
:1031B000A974002583E74FF0004178E7FF0FE01F77
:1031C0003A0F0018B0B586B060B3044690F83000EE
:1031D00020B900202076204600F080F9042084F8F1
:1031E0003000204600F03EF8E0B901A92046FFF784
:1031F00023FFB8B99DF814109DF81520A06B012885
:1032000005D11143C9B211B14FF4007004E0012897
:1032100014BF00204FF48070A0652046E168FFF7DE
:1032200077FD10B1012006B0B0BDFDF72DFE0546BB
:103230002046FFF7EDFE04280CD0FDF725FE401BCD
:103240000130F5D14FF000406063012084F8300078
:103250000320E8E700206063E062012184F8301079
:10326000E1E700002DE9F0438FB081464FF4803054
:1032700000210024FEF752FAB0B3934F0546002117
:1032800000220023B0FBF7F6D9F80000CDE9004694
:1032900001F06AFBD9F8000001F076FBBD4202D3D1
:1032A0007000B5FBF0F58948B0FBF5F00130FDF793
:1032B00055FB00200490D9F8000001F0FBF820BB7A
:1032C000D9F8000001F01CF9B0F1004F12D1002034
:1032D000C9F83C00D9F8000001F0ECF8A8B9D9F819
:1032E0003C00012809D01CE0012189F830104FF082
:1032F000006010E00120C9F83C00D9F8000000216E
:1033000001F06EF868B14FF08050012189F830105B
:10331000D9F834201043C9F8340008460FB0BDE88E
:10332000F08300214FF6FE766B4D0020049AD8B949
:10333000B24219D8D9F80000002101F051F8002854
:10334000E3D1D9F80000294601F065F80028DAD168
:10335000D9F80000002101F003FB04990131049128
:10336000C0F38071C00FE1E704984FF6FF729042FE
:1033700002D34FF08070C8E70020C9F83810ADF8CC
:103380000E00FDF781FD0546D9F8000001F0E4FAD2
:1033900078B3D9F8380003282ED1D9F800000421D9
:1033A00001F0DEFA000DC9F8400004A94846FFF715
:1033B00073FD0028A7D1D9F84410D9F800000904FA
:1033C00001F0B8F80028A0D1D9F800004FF400713E
:1033D00001F039F800284AD0D9F800103D4A8A6334
:1033E000D9F8341008430121C9F8340089F83010A5
:1033F00093E74FF0806088E7D9F8000001F0B5F856
:1034000000287FF482AFD9F80000DFF8C4800021E3
:10341000C047C9F86C00D9F800000421C047C9F8BA
:103420007000D9F800000821C047C9F87400D9F825
:1034300000000C21C047C9F87800D9F838000328EB
:10344000ABD000210DF10E0641F2873789B9D9F8CA
:103450000000314601F0EFF800287FF456AFFDF789
:1034600013FD401BB8422BD8BDF80E10EEE700212B
:1034700053E7D9F8380003288FD0C9F84410D9F899
:103480000000090401F089F800287FF43EAFD9F864
:1034900000000021C047C9F85C00D9F800000421F1
:1034A000C047C9F86000D9F800000821C047C9F832
:1034B0006400D9F800000C21C047C9F868006CE727
:1034C0004FF0004021E700BF00350C001021010043
:1034D00061490008FF0FE01F000010C12DE9F04313
:1034E00087B0044602A81421FDF70BF82068214993
:1034F00088423BD12048214C02AD4FF00C084FF0E0
:10350000030900260227016841F480310160016847
:1035100001F4803101910199C16841F00401C16059
:10352000C16801F0040101910199C16841F00801ED
:10353000C160C068294600F0080001900198CDF8EC
:103540001880CDF81490049603974FF4F850029029
:103550002046FDF7CBFB0420CDE90598CDE90376A5
:103560000290294604F58060FDF7C0FB07B0BDE876
:10357000F08300BF00700052D44402580008025883
:103580002DE9F84350B3044600206049A06220684A
:10359000884208D05E4A904205D0824A904202D0CA
:1035A000E2680F2A1AD8E268E36B0125884202F12B
:1035B000080205EB53134FEAD20203FB02F20BD0D1
:1035C0007849884208D0524B984218BF082A05D83B
:1035D000884218BF984204D1102A02D90120BDE8C0
:1035E000F88394F8811031B9002084F880002046D7
:1035F00000F090F82068022184F88110016821F021
:1036000001010160D4F818806168836803F4F81C34
:10361000B8F1806F10D139B1B1F5800F0CD1A56B25
:1036200035B14FF480010EE0A56BB5F1805F6AD132
:10363000056845F4805505604D0204D4D4F80C901B
:103640004FF0010E0EE0D4F80C90B9F1070F07D33C
:10365000256D07684FF0000E27F480772F4304E0B4
:103660004FF0000E076827F480770760E269A66ACA
:10367000A768D4E9043542EA0C0242EA0602E66B86
:1036800042EA060242EA0902826041EA0802666BE7
:1036900042EA0602666A42EA0602A66B42EA0602AD
:1036A00042EA0302236A42EA050242EA0302D4E93B
:1036B000123542EA050242EA070242EA0302A36D1A
:1036C00042EA0302C26049B98168012262F3CC2157
:1036D00081600222816862F34A218160016DBEF13E
:1036E000000F21F00101016505D1616DC26822F072
:1036F00000421143C1600020C4F88400012184F815
:103700008110BDE8F883002198E700BF0038004031
:10371000003C00402DE9F04186B0044601A8142188
:10372000FCF7EFFE20681F49884237D11E481F4C26
:1037300001AD4FF0050800270226016941F48051D0
:103740000161016901F4805100910099016841F023
:1037500002010160016801F0020100910099016815
:1037600041F0080101600068294600F0080000905F
:103770000098CDF81480CDE90377029618200190C7
:103780002046FDF7B3FA8020CDE90478CDE9026741
:103790000190294604F50060FDF7A8FA06B0BDE8DF
:1037A000F08100BF00300140E0440258000402589C
:1037B00003490A6822F4600210430860704700BFA2
:1037C0000404005870477047704760B310B5044652
:1037D00090F83D0028B9002084F83C00204600F015
:1037E00024F8022084F83D00211D206801F060FAD1
:1037F000012084F8480084F83E0084F83F0084F8F3
:10380000400084F8410084F8420084F8430084F8C2
:10381000440084F8450084F8460084F8470084F8A2
:103820003D00002010BD01207047704790F83D100A
:10383000012920D1022180F83D100168B1F1804FAB
:10384000C86840F00100C8600BD0134881421CBF1B
:103850001248814205D0124881421CBF1148814262
:103860000BD18868134A02400020062A18BFB2F51F
:10387000803F0BD17047012070470B488142F0D048
:103880000A488142EDD00A488142EAD0086840F0F7
:10389000010008600020704700040040000800405C
:1038A000000C0040001800400000014000400140B2
:1038B00000040140070001007047F8B504460068A5
:1038C000C768066906EA0705A90713D56FF0020164
:1038D0000161012121778069800703D02046FFF72D
:1038E000EBFF05E0204600F082F8204600F080F86B
:1038F00000202077680715D520686FF0040101616A
:1039000002212177806910F4407F03D02046FFF721
:10391000D3FF05E0204600F06AF8204600F068F882
:1039200000202077280714D520686FF00801016176
:1039300004212177C069800703D02046FFF7BCFF30
:1039400005E0204600F053F8204600F051F8002032
:103950002077E80615D520686FF010010161082175
:103960002177C06910F4407F03D02046FFF7A4FF01
:1039700005E0204600F03BF8204600F039F8002032
:103980002077E80706D020686FF00101016120462A
:1039900000F030F817F0800718BF16F4025006D078
:1039A00020686FF4025101612046FFF70CFF4FB110
:1039B00016F4807006D020686FF480710161204693
:1039C000FFF700FF680606D520686FF0400101612F
:1039D000204600F019F8A80658BFF8BD20686FF01F
:1039E000200101612046BDE8F840FFF7EDBE7047B9
:1039F0007047000000680349884218BF7047FDF710
:103A000029BB00BF00480140704790F8841001298D
:103A100001D1022112E02421C0F8881001680A684F
:103A20000B6823F001030B6022F000520A600021B2
:103A3000416680F884102022C0F88820084670472C
:103A4000B0B5044690F88400012801D10220B0BD31
:103A50002420C4F8880020680568026822F001026A
:103A60000260012284F88420826822F0606211439F
:103A70008160204601F08AF920682021056000203D
:103A800084F88400C4F88810B0BDB0B5044690F83E
:103A90008400012801D10220B0BD2420C4F8880090
:103AA00020680568026822F001020260012284F8A1
:103AB0008420826822F0604211438160204601F038
:103AC00065F9206820210560002084F88400C4F88E
:103AD0008810B0BD10B5D8B10446D0F8880028B918
:103AE000002084F88400204600F026F82420C4F842
:103AF00088002068A16A026822F00102026011B108
:103B0000204601F065F9204601F03CFA012801D178
:103B1000012010BD2068416821F490414160816816
:103B200021F02A018160016841F001010160204615
:103B3000BDE8104001F0A1B970B586B0044601A8F7
:103B40001421FCF7DEFC2068414988423BD0414902
:103B5000884258D04049884278D1BA48BA4C0025AA
:103B60000226016941F010010161016901F01001B3
:103B700000910099016841F001010160016801F0C4
:103B8000010100910099016841F0020101600068A3
:103B900001A900F002000090009807200590CDE9EF
:103BA000035502964FF4806001902046FDF79EF881
:103BB0000420CDE90450CDE902654FF48040019026
:103BC00004F580603FE09F48816841F400318160E6
:103BD000816801F4003100910099016841F0080109
:103BE0000160006800F008000090072005900020A8
:103BF000CDE90300022002906020019000989248D5
:103C000000F540601FE08F48016941F0200101612B
:103C1000016901F0200100910099016841F0400123
:103C20000160006800F0400000900720059000202F
:103C3000CDE90300022002904FF4844001900098E7
:103C4000814800F5C05001A9FDF750F806B070BDDD
:103C5000004400400014014000100140FEE7000055
:103C6000B0B5114C114813490025134A134B20607D
:103C70000F48A580016040F2F451C0E90332416170
:103C8000446001210172FCF77BFE08B1FCF7CAFD1C
:103C900004F10C003421FCF734FC21214FF44030B6
:103CA000A160C4E90650B0BD380100240080E100E5
:103CB00084010024008002400000002460000024F1
:103CC000B0B588B00F48002110230F4D8022082482
:103CD0000793CDE90533CDE90333CDE90133C0E9DD
:103CE0000051C0E90214C0E90431C0E90621C0E96D
:103CF0000811816201A9FEF77FFF08B1FCF792FD70
:103D000008B0B0BD500300244041005280B50448C3
:103D1000044A002101F0CCFB0349086080BD00BFCC
:103D2000D14A0008C8720008800100242DE9F04340
:103D300087B044484FF00008CDF81880424C02ADDF
:103D40004FF00A090227414E016841F0100101605D
:103D5000016801F0100101910199016841F002012F
:103D60000160016801F0020101910199016841F0CF
:103D700040010160016801F0400101910199016871
:103D800041F008010160016801F008010191019909
:103D9000016841F004010160016801F00401019132
:103DA0000199016841F001010160016801F0010120
:103DB00001910199016841F020010160016801F061
:103DC000200101910199016841F48071016001684D
:103DD00001F4807101910199016841F08001016055
:103DE0000068294600F0800001900198CDF81890F5
:103DF0000597CDE9037843F62340029004F58060EF
:103E0000B0474FF40060CDE90579CDE90378029021
:103E1000294604F50050B0470920CDE90579CDE9E0
:103E200003780290294604F50060B0472820CDE9C8
:103E30000579CDE90378029029462046B04707B0BE
:103E4000BDE8F083E044025800000258ED0C000881
:103E500010B5124C01200021114A124BC4E9003266
:103E6000C4E9021004F110001421FCF74AFB2046BB
:103E7000FDF758F808B1FCF7D5FC08480021FDF71C
:103E800007F808B1FCF7CEFC04480021FDF725F83F
:103E900018B1BDE81040FCF7C5BC10BD34020024C9
:103EA000B1757030001C005810B50B48002101227C
:103EB000FF230A4CC0E90043C0E90221C0E9042104
:103EC000C0E906110162FDF7B1F918B1BDE8104073
:103ED000FCF7A8BC10BD00BF8802002400500052AF
:103EE00080B509480021094B4FF48042C0E90031F8
:103EF000C0E90212C0E90411FFF764F918B1BDE886
:103F00008040FCF78FBC80BDD402002400700052BA
:103F100070B5134C00204FF080514FF080620323A6
:103F20004FF480050F4EC4E90065C4E90203C4E9FB
:103F30000400C4E90621C4E90800C4E90A004FF0FE
:103F400080406063242104F13800FCF7DAFA20464F
:103F5000FFF716FB18B1BDE87040FCF763BC70BDFD
:103F6000840300240030014010B5174C0C200021C0
:103F70004FF4E132154BC4E90032C4E90211C4E93F
:103F8000041004F118001421FCF7BBFA2046FFF7D7
:103F9000A1FD08B1FCF746FC0B480021FFF775FDB9
:103FA00008B1FCF73FFC08480021FFF749FD08B1C4
:103FB000FCF738FC0448FFF728FD18B1BDE81040B5
:103FC000FCF730BC10BD00BF5804002400100140B5
:103FD00010B5174C0C2000214FF4E132154BC4E909
:103FE0000032C4E90211C4E9041004F118001421DC
:103FF000FCF787FA2046FFF76DFD08B1FCF712FCCD
:104000000B480021FFF741FD08B1FCF70BFC084805
:104010000021FFF715FD08B1FCF704FC0448FFF789
:10402000F4FC18B1BDE81040FCF7FCBB10BD00BFAC
:10403000EC0400240044004010B5174C0C20002173
:104040004FF4E132154BC4E90032C4E90211C4E96E
:10405000041004F118001421FCF753FA2046FFF76E
:1040600039FD08B1FCF7DEFB0B480021FFF70DFD21
:1040700008B1FCF7D7FB08480021FFF7E1FC08B1C5
:10408000FCF7D0FB0448FFF7C0FC18B1BDE81040B6
:10409000FCF7C8BB10BD00BF800500240014014020
:1040A0007047FEE7FEE7000000000000000000008F
:1040B000EFF30980BFF36F8F154B1A681EF0100FD6
:1040C00008BF20ED108A20E9F04F10602DE90900AB
:1040D0004FF0500080F31188BFF34F8FBFF36F8F05
:1040E00002F036FA4FF0000080F31188BDE80900B5
:1040F00019680868B0E8F04F1EF0100F08BFB0EC68
:10410000108A80F30988BFF36F8F704700BF00BF2C
:1041100008070024B0B5B0B06C46C021C0252046C9
:10412000FCF7EFF91B4900910A22002001904FF49F
:104130000011229108211F9101211E914FF400517D
:1041400018914FF480311491202113910221129182
:10415000CDE910004FF440610F9103210E91CDE99C
:104160000C1232220B9204220A92CDE9080006209A
:10417000CDE90615CDE904103C20CDE9022020460A
:10418000FDF714FC18B1EFF3108072B6FEE730B003
:10419000B0BD00BF031005032DE9F843DDF8209002
:1041A000984616460F46044609F1010520688068C6
:1041B000384018BF0120B04214D0002DF6D0FCF7D3
:1041C00063FEB9F1000F03D0A0EB08004845EDD91C
:1041D000042084F84100606C40F00100606401201C
:1041E000BDE8F8830020BDE8F8830000F8B57B4FF8
:1041F0000546B86A00F00300032801D10120F8BD8C
:1042000038680C4620F080603860FCF73DFE0646BA
:104210003868000105D5FCF737FE801B0228F7D966
:104220005CE095E80F00BE6A26F47C36A1F101013E
:1042300046EA0030B8626FF35F214FF47E4000EB36
:1042400042204FF0FE4280B208444FF4FE0101EBE1
:10425000034101F4FE010844296902EB016101F008
:10426000FE410844B8636869F96A21F0C00140EA78
:104270000100F862A869F96A21F0200140EA010012
:10428000F8624FF6F871F86A20F01000F862F86BE7
:1042900020EA0100E96940EAC100F863F86A40F0E9
:1042A0001000F8623CB1F86A012C14BF40F4001011
:1042B00040F4801002E0F86A40F40020F8623868A8
:1042C00040F080603860FCF7DFFD0446386800018C
:1042D00006D4FCF7D9FD001B0328F7D30320F8BD53
:1042E0000020F8BDF8B53D4F0546B86A00F0030060
:1042F000032801D10120F8BD38680C4620F0805019
:104300003860FCF7C1FD06463868800005D5FCF72B
:10431000BBFD801B0228F7D95CE095E80F00BE6A60
:1043200026F07C76A1F1010146EA0050B8626FF3F5
:104330005F214FF47E4000EB42204FF0FE4280B2FE
:1043400008444FF4FE0101EB034101F4FE0108446F
:10435000296902EB016101F0FE4108443864686993
:10436000F96A21F4406140EA0100F862A869F96A3B
:1043700021F4007140EA0100F8624FF6F871F86A22
:1043800020F48070F862786C20EA0100E96940EA64
:10439000C1007864F86A40F48070F8623CB1F86A51
:1043A000012C14BF40F0807040F4000002E0F86A75
:1043B00040F48000F862386840F080503860FCF7C4
:1043C00063FD04463868800006D4FCF75DFD001BE1
:1043D0000328F7D30320F8BD0020F8BD004402589D
:1043E00010B586B004464FF480500590002004902C
:1043F0004FF4807003903720CDE9011001A92046C9
:1044000000F0CCFA2046372141F2883206B0BDE8F0
:10441000104000F059B910B586B004464FF48050F2
:104420000590002004904FF4807003902920CDE97E
:10443000011001A9204600F0B1FA204606B0BDE8FF
:10444000104000F0F7B910B586B004464FF4805024
:104450000590002004904FF4807003901020CDE967
:10446000011001A9204600F099FA2046102141F2DE
:10447000883206B0BDE8104000F026B910B586B00D
:1044800004464FF480500590002004904FF4807053
:1044900003900620CDE9011001A9204600F07EFA24
:1044A0002046062141F2883206B0BDE8104000F0F7
:1044B0000BB9000010B586B004460020CDE903001A
:1044C000CDE9010001A94FF480500590204600F08D
:1044D00065FAE9484FF4FA510068B0FBF1F041F297
:1044E00088314843C043013006D2616B0906FAD5D2
:1044F000CF48A063002001E04FF0004006B010BD9F
:1045000010B586B004464FF48050059001A90020F4
:1045100004904FF480700390082002904FF4D570FF
:104520000190204600F03AFA204606B0BDE810405F
:1045300000F0E6B910B586B004464FF480500590FF
:10454000002004904FF4807003900720CDE9011003
:1045500001A9204600F022FA2046072141F28832C4
:1045600006B0BDE8104000F0AFB810B586B0044604
:104570004FF480504FF440710590039100200221C8
:104580000490CDE9010101A9204600F007FA204678
:1045900006B0BDE8104000F025B910B586B004465D
:1045A0004FF480500590002004904FF44070039029
:1045B0000920CDE9011001A9204600F0EFF92046BD
:1045C00006B0BDE8104000F00DB910B586B0044645
:1045D0004FF480504FF480710590039100203321F7
:1045E0000490CDE9010101A9204600F0D7F9204649
:1045F000332141F2883206B0BDE8104000F064B8C3
:1046000010B586B004464FF4805005900020049009
:104610004FF4807003900D20CDE9011001A92046D0
:1046200000F0BCF920460D2141F2883206B0BDE809
:10463000104000F049B8B0B586B00C4605464FF4BE
:1046400080504FF480710590039100200321049065
:10465000CDE9010101A9284600F0A0F9284603216F
:10466000224606B0BDE8B04000F008B910B586B0EB
:1046700004464FF480504FF4807105900391002060
:104680000D210490CDE9010101A9204600F086F931
:1046900020460D2141F2883206B0BDE8104000F0FE
:1046A00013B8B0B591E83C00426283620A6945EAFA
:1046B000040349691A431143C26A22F0FF021143FD
:1046C000C1620020B0BD000010B50346A1484FF400
:1046D000FA540068B0FBF4F05043421C3F48013AE2
:1046E0003ED05C6B0442FAD014F40054F7D15A6BFC
:1046F000520738D45A6BD20737D180309863186983
:10470000C0B2884234D158693549084232D00028B5
:1047100032D4410033D4810033D4C10033D40101F9
:1047200034D4410135D4C10136D4010237D4410219
:1047300038D4810239D4C1023AD441033BD4810335
:104740003CD4C1033DD401043ED441043FD4810490
:1047500040D400074FF4000058BF4FF4803010BD24
:104760004FF0004010BD042000E00120986310BD10
:10477000012010BD002010BD4FF0007010BD402082
:1047800010BD802010BD4FF4807010BD4FF400703C
:1047900010BD4FF4806010BD4FF4006010BD4FF4A9
:1047A000805010BD4FF4005010BD4FF4804010BD3C
:1047B0004FF4004010BD4FF4003010BD4FF4802086
:1047C00010BD4FF4002010BD4FF4801010BD4FF409
:1047D000001010BD4FF4800010BD00BF4500200048
:1047E00008E0FFFD5B494FF4FA520968B1FBF2F1B2
:1047F00041F288325143C943013110D2426B12F069
:10480000450FF9D012F40052F6D1416B490709D493
:10481000416BC90708D139498163002106E04FF097
:10482000004103E0042100E0012181630846704754
:10483000C500200047494FF4FA520968B1FBF2F174
:1048400041F288325143C943013110D2426B12F018
:10485000450FF9D012F40052F6D1416B042211F049
:10486000040104BFC522C0F22002826301E04FF0C0
:1048700000410846704700BFC800002410B5354B02
:104880004FF4FA541B68B3FBF4F341F288346343EA
:10489000DB4301331FD2446B14F0450FF9D014F4FD
:1048A0000054F6D1436B5B0718D4436BDB0717D179
:1048B0000369DBB28B4217D110498163406910F460
:1048C000604F13D0410415D44FF48051000458BFF9
:1048D0004FF4803106E04FF0004103E0042100E096
:1048E00001218163084610BD0121FBE7000C108007
:1048F0000021F7E74FF40051F4E700BFC5002000A6
:1049000014494FF4FA520968B1FBF2F141F28832CE
:104910005143C943013113D2426B12F0450FF9D014
:1049200012F40052F6D1416B49070CD4416BC90710
:104930000BD1416B490601D540218163002106E07E
:104940004FF0004103E0042100E0012181630846AB
:10495000704700BFC8000024006800F003007047E3
:104960000844406970470000B0B51143049A446898
:10497000044D19432C401143059A114321434160D2
:104980000020B0BD002CC0FF016841F003010160B0
:1049900000207047D0F880007047000070B591E8A3
:1049A0003C008260054E2343C26809692B433240B4
:1049B00019431143C160002070BD00BFC0E0FEFF7D
:1049C0002DE9F04786B00C460546FCF75DFA064631
:1049D00028680821FFF737FD002855D1696C286841
:1049E0000904FFF7FDFC00284ED10120059069461F
:1049F00000200490022003903020029008200190B3
:104A00004FF0FF3000902868FFF74BFE2868FFF753
:104A1000DCFDC8BB002740F22A5A4FF000084FF0D7
:104A2000000929684A6B486B12EA0A0F14D100F496
:104A30000020384308D10846FFF7ACFF80462868BD
:104A4000FFF7A8FF81460127FCF71EFA801B013003
:104A50004FF00040E5D117E000070FD4486B800706
:104A60000ED4486B80060DD40948886399FA89F101
:104A700098FA88F0C4E90010002005E0082002E060
:104A8000022000E02020886306B0BDE8F08700BF68
:104A90003A0F0018000000000000000000000000B5
:104AA000074B19680868B0E8F04F80F30988BFF336
:104AB0006F8F4FF0000080F31188704700BF00BF78
:104AC000080700240000000080B500F081FC80BDD4
:104AD000012000F0A9FCFBE780B54EF21000CEF2F9
:104AE0000000006802F06CF9012808BF80BD01F0E9
:104AF0000BFE80BD10B59CB009A84C21FBF701FD51
:104B000001A82021FBF7FDFC0220FCF76BFB3649D6
:104B100000200090086820F001000860086800F09C
:104B2000010000903148026842F44042026002688D
:104B300002F440420092009A02689204FCD52C4A8A
:104B4000835843F002038350825802F0020200921D
:104B5000009A00220092026842F440420260026819
:104B600002F4404200920A6842F001020A600968B9
:104B700001F001010091009901688904FCD50C2025
:104B80000024CDE91A441990502102201890CDE953
:104B90001600159104211491CDE912004FF4A020C4
:104BA0000A900120099009A8FDF7A2FD18B1EFF3C2
:104BB000108072B6FEE740204FF4806107910890A4
:104BC000CDE905000820CDE903400421032002902F
:104BD0003F20019001A8FDF7A1FB18B1EFF3108071
:104BE00072B6FEE71CB010BD2C04005818480258DD
:104BF000DCFCFFFF10B52148214A016841F4700137
:104C00000160106800F00F00062804D81068072122
:104C100061F3030010601B481B4C016841F0010167
:104C200001600021016103682340036013681B07D2
:104C300004D51368072464F303031360134A8161E6
:104C4000C16101628262124AC262124A0263416316
:104C50008263C16302644164026822F480220260BC
:104C600001660D480068B1EB507F02D10B4801216D
:104C700001600B4843F2D201016010BD88ED00E0F5
:104C800000200052004402587FEDF6EA00020202C2
:104C90000000FF01800201010010005C088100514A
:104CA000004000520148FEF708BE00BF0C0400247B
:104CB000B0B50268B0F1804F05D02C4B98421CBFB4
:104CC0002B4B98423ED122F070024B681A43B0F150
:104CD000804F1CBF254B98420BD0254B98421CBFE0
:104CE000244B984205D0254B98421CBF224B98423A
:104CF00032D122F44072CB681A434D6922F080020F
:104D00000B688C682A430260C46283621B4A90422B
:104D10001CBF194A90420BD109690163012141610D
:104D20000169C90703D0016921F001010161B0BD2A
:104D3000134A9042F0D0134A9042EDD0124A90426A
:104D4000EAD0EBE70B4B9842BDD00B4B9842BAD060
:104D50000A4B9842B7D0BAE7094B9842C9D0094BE1
:104D60009842C6D0084B9842C3D0C6E70004004022
:104D700000080040000C0040000401400000014019
:104D8000004001400048014000440140B0B5416E80
:104D900091B102680C4B0D4D9168C1F3426192686C
:104DA000520F5C5C695C9B5CAA5C09011201B1FB5F
:104DB000F4F1B2FBF3F201E001220121A0F8681046
:104DC000A0F86A20B0BD00BFC0720008B872000829
:104DD00010B5816A0A0706D50268836B546824F40B
:104DE000004423435360CA0706D00268C36A54686C
:104DF00024F40034234353608A0706D50268036B0A
:104E0000546824F48034234353604A0706D502686B
:104E1000436B546824F4802423435360CA0606D5A8
:104E20000268C36B946824F48054234393608A0619
:104E300006D50268036C946824F4005423439360FD
:104E40004A0610D50268436CB3F5801F546824F4F9
:104E5000801444EA0304546005D1836C546824F43C
:104E6000C00423435360090606D50168C06C4A6834
:104E700022F400221043486010BDBCB50446002057
:104E8000C4F89000FCF700F805462068016809079F
:104E900019D56FF07E4000904FF4001100222B4690
:104EA000204600F033FA68B1206850E8000F21680E
:104EB00020F0800041E80002002AF5D12020C4F84B
:104EC000880025E020680068400723D56FF07E4009
:104ED00000904FF4800100222B46204600F016FA85
:104EE000C0B1206850E8000F216820F4907041E8BC
:104EF0000002002AF5D1206850E8020F216820F056
:104F0000010041E80202002AF5D12020C4F88C00FB
:104F1000032007E02020C4F88800C4F88C0000209B
:104F2000E0662067002184F88410BCBD10B50168DC
:104F300051E8001F026821F4907142E80013002B31
:104F4000F5D10F49026852E8022F03680A4043E88E
:104F50000224002CF6D1C16E012909D1016851E863
:104F6000001F026821F0100142E80013002BF5D168
:104F70002021C0F88C1000214167C16610BD00BF20
:104F8000FEFFFFEFFEB50446016880689E4ED4E93F
:104F900003230D682E40184365699C4B2843E5693F
:104FA0002843304308609A4E4868B14220F440508C
:104FB00040EA02004860A0691CBF226A10438A6868
:104FC0001A40944B10438860626AC86A20F00F0050
:104FD0001043C8629048814228D09048814232D024
:104FE0008F4881423CD08F48814246D08E488142D2
:104FF00000F050808D48814200F05880B14200F0AE
:1050000061808B48814200F069808A48814240F08B
:105010007B80586D9C46C0F3C200052800F2758065
:105020000127DFE800F07367696B6D6F586D9C4670
:1050300000F00700052800F268800027DFE800F094
:10504000665A5C5E6062586D9C4600F00700052859
:1050500000F25B800027DFE800F0594D4F515355B7
:10506000586D9C4600F00700052800F24E8000278E
:10507000DFE800F04C4042444648586D9C4600F042
:105080000700052800F241800027DFE800F03F33E9
:105090003537393B586D9C4600F00700052834D859
:1050A0000027DFE800F03327292B2D2F586D9C4671
:1050B00000F00700052828D80027DFE800F0271BAC
:1050C0001D1F2123986D9C4600F0070005281CD861
:1050D0000227DFE800F01B0F11131517586D9C46CF
:1050E000C0F3C200052810D80127DFE800F00F0345
:1050F0000507090B042709E0082707E0102705E04A
:10510000202703E0402701E09C4680277B48B142EE
:105110000FD00121B5F5004F1BD1082F25D8DFE8AE
:1051200007F00570CFCF8BCFCFCF8F00FDF746FABA
:105130008AE0402F30D0042F31D0082F33D0102FE9
:105140003AD0202F42D0022F40F0B980FCF746F928
:105150002DE0082F14D8DFE807F00591B3B394B31E
:10516000B3B39800FDF72AFA93E0102F00F0B08057
:10517000202F6BD0402F40F0A3804FF4004065E01B
:10518000102F00F0B080202F00F08580402F40F0DD
:1051900097804FF400407EE04FF4004016E06846F0
:1051A000FCF7B4F902E06846FCF734FA01980028ED
:1051B00000F08380626A09E0DCF800008006504855
:1051C00004D5DCF80010C1F3C101C8404D4931F8E5
:1051D00012106268B0FBF1F002EB42030121984229
:1051E0006ED3130398426BD8010E0002002310EB1C
:1051F000520041F10001FBF7BFF8A0F54071424AAF
:1052000057E0FDF7E9F91FE0F369FFCFFFF4FF1165
:10521000000C005800440258004400400048004080
:10522000004C00400050004000780040007C0040EE
:1052300000140140001001406846FCF767F902E0E5
:105240006846FCF7E7F90198B8B3626A2D4931F86E
:105250001210B0FBF1F061684A0802EB40004FF613
:10526000EF72B0FBF1F0A0F11001914227D84FF698
:10527000F0710140C0F3420008441CE0FDF7ACF9B6
:1052800007E06846FCF742F902E06846FCF7C2F91D
:10529000019890B1626A1B4931F812104FF6EF7213
:1052A000B0FBF1F0616800EB5100B0FBF1F0A0F150
:1052B0001001914203D82168C860002100E001215B
:1052C0000020C4E91D004FF00110A0660846FEBD95
:1052D000DCF8000080060A48B8D5DCF80010C1F3FD
:1052E000C101C840B2E7DCF8000080060448D2D50E
:1052F000DCF80010C1F3C101C840CCE700093D0053
:105300000090D003A0720008FFFC0F002DE9F843C5
:10531000DDF820900446984616460F46006809F1CD
:105320000105C1693940C91BB1FA81F14909B1428E
:1053300029D1002DF5D0FBF7A7FD01460320B9F1D7
:10534000000F1ED0A1EB080149451AD8206801685A
:105350004907E6D5402F18BF802FE2D0C169090761
:1053600014D4C1690905DCD54FF4006101622046FF
:10537000FFF7DCFD002084F884002020C4F89000B2
:105380000320BDE8F8830020BDE8F8830825056206
:105390002046FFF7CBFD002084F88400C4F890502D
:1053A0000120BDE8F883FEE710B500F00F03064CBE
:1053B000044AB0F1FF3F2344C8BF831808011870A6
:1053C00010BD00BF00E400E014ED00E000000000AC
:1053D0004EF61F500021CEF2000001707047FBF71F
:1053E00045FEFFF787FBFEF795FEFEF79FFCFEF7F5
:1053F00037FCFEF765FCFEF72BFDFEF755FDFEF7CB
:105400006FFDFEF785FDFEF7AFFDFEF7E1FDFEF750
:1054100013FEFEF745FE00F017F8FEF777FC00F0EC
:105420002BF8FEE700000000EFF3058100291CBF08
:105430006FF00500704720B180B500F0ADFF00208F
:1054400080BD002070470000EFF3058000281CBFDE
:105450006FF00500704740F27C10C2F20040016816
:1054600000291CBF4FF0FF30704701210160002070
:10547000704700000000000010B5EFF30580002821
:105480001CBF6FF0050010BD40F27C14C2F2004456
:105490002068012807D1FFF717FB0220206000F0E9
:1054A000FBFF002010BD4FF0FF3010BD00000000DA
:1054B00070B584B08E4600284FF000010391EFF3E1
:1054C00005814DD000294BD1F2B19369002B08BF63
:1054D0001823382B15D81179C90712D1556994684A
:1054E0004FEA950C002D08BF4FF0800C11689CB15D
:1054F000D6685C2E0FD375B1156965B1012484B9E6
:1055000022E0002004B070BD002118234FF0800C71
:10551000002434B918E00CB9D46874B14FF0FF34EA
:1055200094B1012C1CD194681269CDE90032624615
:105530007346029401F004FC11E01469002C18BFBA
:105540004FF0FF34002CECD1009303AB1FFA8CF228
:105550000193734601F0C0FB012801D000200390A5
:10556000039804B070BD0000F0B581B044F65472E9
:1055700040F20876C2F20042C2F2004604460D46EE
:1055800017683268101D00F077FD601C0AD14DB11C
:105590003068011D44F62C70C2F2004000F0D0FDCE
:1055A00001B0F0BD3068E41944600AD340F21870CD
:1055B000C2F2004000683168043100F0A1FD01B082
:1055C000F0BD40F21070C2F2004000683168043152
:1055D00000F096FD44F6B860C2F2004001688C42CB
:1055E00038BF046001B0F0BD70B5044600F0C4FDE2
:1055F00044F28C7040F20875C2F20040C2F20045DD
:1056000044F620760168C2F2004601310160296843
:1056100041B1306860B92868E16AC06A884298BFC1
:105620002C6005E02C600068012801D100F0D4F95D
:1056300044F29870C2F20040016801310160616477
:1056400044F29C71C2F20041E06A0A68904288BF4D
:10565000086000EB800040F22071C2F2004101EBD3
:105660008000211D00F06CFD00F0AEFD306880B1BF
:105670002868E16AC06A884228BF70BD4EF60450AF
:105680004FF08051CEF200000160BFF34F8FBFF3A7
:105690006F8F70BD0000000070B582B000F06CFD2F
:1056A00044F65876C2F20046306850BB44F658645F
:1056B000C2F20044204600F013FD44F66C65C2F2CD
:1056C0000045284600F00CFD40F20C7040F21462D8
:1056D000C2F2004040F2B463C2F20042C2F20043A0
:1056E000046040F21C70C2F20040102105600A20E4
:1056F0000025009501F020F8306010B103A100F002
:1057000013FE00F061FD02B070BD00BF546D725118
:105710000000000000000000F0B581B044F2907578
:10572000C2F200452868E0B144F6407644F28C7736
:10573000C2F20046C2F2004700F01EFDF068C468E5
:10574000201D00F099FC386801383860286801385D
:10575000286000F039FD204600F05AF8286800283B
:10576000EAD101B0F0BD000080B5026C002A08BF8C
:1057700080BDD0E902C31344C360634501D303680D
:10578000C360C36808461946FAF76EFE80BD000084
:1057900070B5866B0446036CEBB1154622B3E06826
:1057A0001A46FAF761FEE168206C2268091A9142F4
:1057B000E16003D24042A1680844E060A81E31467F
:1057C000002E4FF00005B0FA80F018BF012140090B
:1057D0000840361A18E020680025A8B9A06801F032
:1057E000B7FBA56005460FE060681A46FAF73CFE75
:1057F000216CD4E9010208446060904201D2002586
:1058000002E0206860600025701CA063284670BD1F
:1058100010B5044690F85900022808D0012803D09A
:1058200030B9206B00F0E8FC204600F0E5FC10BD2C
:105830004FF0500080F31188BFF36F8FBFF34F8F8D
:10584000FEE700000000000040F20C71C2F20041CF
:1058500009680A68B2FA82F3002A4FEA531202601A
:105860000EBF0020C86800687047000000000000FC
:1058700040F68030C2F20040C11D10F0070221F056
:105880000701A0EB010318BF08464FF47051002A2E
:1058900018BF03F5705144F624720023C2F200428F
:1058A00001440839106021F00701536040F214727E
:1058B000C2F200421160C1E90033091A4160126866
:1058C000026044F6B460C2F20040016044F6AC608D
:1058D000C2F20040016044F68060C2F20040012143
:1058E000017070470000000040F220744EF604552D
:1058F000C2F20044CEF200054FF08056FFF70CFFD5
:1059000020680228FAD32E60BFF34F8FBFF36F8F4A
:10591000F4E7000000000000B0B51C46049D09B18A
:105920002A6000E02D60C5E90F010121284600F042
:105930004FFF85F84C40B0BD2DE9F0470A9C164654
:105940000F468246206B9100A5229846DDE9085952
:10595000FAF7CFFD206B00EB8600A0F1040020F0E9
:1059600007067FB104F13400002100BF7A5C425485
:105970007A5C1AB10F2901F10101F7D3002084F8F4
:10598000430002E0002084F83400372D04F10400C5
:1059900028BF37250027E562C4E9135700F0ACFBA8
:1059A00004F1180000F0A8FBC5F13800A0613046F2
:1059B0005146424624616462676584F8587000F07D
:1059C00043FBB9F1000F206018BFC9F80040BDE8E3
:1059D000F087000000000000B0B540F22075002400
:1059E000C2F20045281900F07BFB1434B4F58C6F2B
:1059F000F8D144F68464C2F20044204600F070FB03
:105A000044F69865C2F20045284600F069FB44F66A
:105A1000CC60C2F2004000F063FB44F64070C2F27A
:105A2000004000F05DFB44F62C70C2F2004000F034
:105A300057FB40F21070C2F20040046040F2187050
:105A4000C2F200400560B0BD80B544F62472C2F2D7
:105A5000004200BF114612688242FBD3D1F804C055
:105A600001EB0C03834203D1406860444860084660
:105A7000D0F804E000EB0E0393420CD140F2147313
:105A8000C2F20043D3F800C0624509D00B685268E7
:105A9000724442601A680260814218BF086080BD8B
:105AA000C0F800C0F8E7000080B58C460146944578
:105AB000006141F804CF08D99A4201D29C4511D225
:105AC00040F20C70C2F2004007E0D21A80698242B4
:105AD00008D240F21C70C2F20040006800F010FBD7
